:020000040000FA
:06000000EFEF0EF012000C
:020006001200E6
:06000800F3EF0DF0120001
:02000E000200EE
:10001000441E0000F50000000A000000401E000021
:080020003C0100000400000097
:0800280050EC05F0FB0EDBCFEC
:10003000F3FFDB06F35000090AE09EEC05F0FA0E30
:1000400009EC06F0F3E1151CF1E1010E01D0000E00
:100050007FEF05F050EC05F03B0EE12402E3E16890
:10006000E652E16E010EDB6A020EDB6AF90EDBCFAF
:10007000F6FFFA0EDBCFF7FFFB0EDBCFF8FF080031
:10008000F550DF6EDF5002E1A3EF04F0250EDF5CD8
:1000900002E096EF04F0030EDB6A040EDB6A050E45
:1000A000DB6A060EDB6A070EDB6AB8EC04F02D0E85
:1000B000DF5C0CE02B0EDF5C09E0200EDF5C06E06D
:1000C000230EDF5C03E0300EDF5C1AE1DF50300A04
:1000D00014E0130A0FE0030A0AE00B0A05E0060A1F
:1000E000E4E1030EDB80E1D7030EDB82DED7030EF3
:1000F000DB84DBD7030EDB86D8D7030EDB88D5D7AE
:100100002A0EDF5C1BE1B4EC04F002EC05F010E019
:10011000030EDB8006680768130EDBCF0DF0140EAC
:10012000DBCF0EF00DEC0EF0040E04C0DBFF03D0AD
:10013000130EEBEC04F0B8EC04F00BD0090EDB6A04
:1001400059EC05F003E0CDEC05F0FAD7090EEBEC25
:1001500004F0030EDBB0DB982E0EDF5C1BE1B8EC85
:1001600004F02A0EDF5C0BE1B4EC04F002EC05F0C5
:1001700003E1130E3DEC05F0B8EC04F00BD0090ED2
:10018000DB6A59EC05F003E0CDEC05F0FAD7090E77
:100190003DEC05F0680EDF5C07E1B8EC04F0680E9A
:1001A000DF5C1DE1030E18D0740EDF5C17E07A0EE1
:1001B000DF5C14E0480EDF5C06E0540EDF5C03E019
:1001C0005A0EDF5C02E1020E07D06C0EDF5C03E02A
:1001D0006A0EDF5C04E1010E90EC05F0C9DBDF5034
:1001E0006E0A01E17FD31E0A01E192D1200A01E1EA
:1001F0008FD13F0A01E149D11A0A01E146D10D0A26
:1002000001E143D1200A01E140D13A0A01E13DD1A7
:10021000200A01E13AD1260A01E135D10D0A01E1B6
:1002200032D11A0A01E1D9D0200A4AE0300A1FE08F
:10023000460A0EE0250A01E083D3D950F90FE96E92
:10024000FF0EDA20EA6E010EEE5E000EEE5AEE5A56
:100250009EEC05F0250EE66E95DB03E1151C01E131
:1002600069D39AEC05F001E26BD3DB2A69D3080E5F
:10027000DB6A040EDB50010806E2040EDB0462ECCC
:1002800005F0DB508BDB080EDB5009E0030EDB5082
:10029000010B05E172DB01E04DD3080EDB6A64DB84
:1002A000EFCFDFFF12EC06F003E1151C01E142D3B2
:1002B0009AEC05F001E3DB2A60DB01E141D33AD39C
:1002C000070EDB5002080FE1DEEC05F0030EA5EC93
:1002D00005F00E0EEECFDBFF0F0EEECFDBFF100EA4
:1002E000EECFDBFF20D0F70EDBCF17F0F80EDBCF21
:1002F00018F0020E175E000E185AF70E17C0DBFF3B
:10030000F80E18C0DBFF17C0E9FF18C0EAFF95EC34
:1003100005F0166A0E0E14C0DBFF0F0E15C0DBFFD2
:10032000100E16C0DBFF0E0EDBCFE6FF0F0EDBCF8D
:10033000E6FF100EDBCFE6FFB7EC0DF0E552E5521D
:10034000E552130E05C0DBFF140E06C0DBFF060EE0
:10035000DB5005E0130ED9EC05F001E26ADBFDECA1
:1003600005F002E2130E37DBC0EC05F006E0040EE8
:10037000D9EC05F002E2050E2EDB030EDBB005D052
:10038000FCDA01E0D7D2080EDB6A090EDB6A0E0E3A
:10039000DBCFF6FF0F0EDBCFF7FF100EDBCFF8FF42
:1003A0000800F550DF6EDF5014E003EC06F011E2B8
:1003B00012EC06F003E1151C01E1BCD2BBDB01E34A
:1003C000DB2A090EDB2AD9500E0FE96E000ECBDBBB
:1003D000E7D7D3DA01E1B4D2ADD2C6DA110EEECF4F
:1003E000DBFF120EEDCFDBFF110EDBCFE6FF120EAF
:1003F000DBCFE6FFA9EC0DF0E552E552130EF3CF8B
:10040000DBFF140EF4CFDBFF060EDB5004E0130E0F
:10041000D0DB01E20EDBFDEC05F002E2130EDBDACD
:10042000AFDB05E0040EC5DB02E2050ED4DA030EF5
:10043000DBB005D0A2DA01E07DD2080EDB6A090E3E
:10044000DB6A110EDBCFE9FF120EDBCFEAFFEFCF45
:10045000DFFFDF5014E0D7DB12E2E4DB03E1151C21
:1004600001E168D267DB01E3DB2A090EDB2A110E0A
:10047000DB2ADBCFE9FF120EE8E3DB2AE6D77DDAE1
:1004800001E15ED257D2030EDB8E070EDB0410E1D2
:1004900095DB040E5ADB0A0EEECFDBFF0B0EEECF20
:1004A000DBFF0C0EEECFDBFF0D0EEECFDBFF6CD0D3
:1004B000070EDB5003082CE1030EDBAE0DD0B2DAE1
:1004C000020E76DAEFCF14F0156A166A176A14AEC8
:1004D00039D01568166835D0F70EDBCF15F0F80E59
:1004E000DBCF16F0020E155E000E165AF70E15C081
:1004F000DBFFF80E16C0DBFF15C0E9FF16C0EAFFF0
:10050000EFCF14F00A0E14C0DBFF0B0EDB6A38D0FD
:10051000070EDB50020809E1030EDBAE04D059DB05
:1005200016AE10D00ED055DB0DD0030EDBAE12D0C0
:1005300079DA020E3DDAF9DA166A176A15AE02D0D8
:1005400016681768E2DA0C0E16C0DBFF0D0E17C036
:10055000DBFF1AD0F70EDBCF16F0F80EDBCF17F06B
:10056000020E165E000E175AF70E16C0DBFFF80ECD
:1005700017C0DBFF16C0E9FF17C0EAFFD6DAC5DAFD
:100580000C0EDB6A0D0EDB6A060EDB5005E1010E78
:10059000F36E050EF3CFDBFF150EDB6A160EDB6A7A
:1005A000D950370F146E000EDA20156E390E14C0B4
:1005B000DBFF3A0E15C0DBFF380EDB6A080EDB6A84
:1005C0000A0EAEDADF50780A12E0200A10E0280A9C
:1005D0000CE0200A0AE03F0A06E00D0A02E0200AC9
:1005E00008E1020E05D0080E03D0080EDF26100E1B
:1005F00097DA030EDBBE02D0DB92DB94DB50800B7C
:1006000024E08ADAD890030EEB50000A08E6000EC8
:10061000EE5C000EEE58000EEE58000EEE5815E29D
:1006200013DA0B680C680D680E683DEC0DF00A0ECD
:1006300000C0DBFF0B0E01C0DBFF0C0E02C0DBFFB6
:100640000D0E03C0DBFF2D0E08D0030EDBA202D07F
:100650002B0E03D0DBA408D0200EF36E170EF3CFC1
:10066000DBFF150EDB2A02D0170EDB6A050EDB500E
:1006700003E1B7D901E189D02C0E146E1E0E156E60
:10068000000E166E070EDBCF17F0186A196A1A6A89
:1006900017C00BF018C00CF019C00DF01AC00EF006
:1006A000D3D966EC0EF014500024F36E15500120DF
:1006B000F46E16500220F86EF4CFF7FFF3CFF6FF7A
:1006C0000800090EF5CFDBFF580EDF5C0FE1610E6D
:1006D000F36E090E7BD90AE3200E146E090EDBCFF0
:1006E000E7FF1450E75E090EE7CFDBFF070EDBCF15
:1006F00014F0156A166A176A0FDA14C00BF015C0E9
:100700000CF016C00DF017C00EF0EECF04F0EECFD7
:1007100005F0EECF06F0EFCF07F066EC0EF007C065
:10072000EDFF06C0EDFF05C0EDFF04C0EFFF390E81
:10073000DBCFE9FFDB063A0EDBCFEAFF01E2DB06A7
:10074000090EDBCFEFFF150EDB2A4BD995E1030E27
:10075000DBA61DD06F0EDF5C06E1C1D918E3150ED4
:10076000DB285BDA14D0780EDF5C09E0580EDF5C22
:1007700006E0620EDF5C03E0420EDF5C08E1020E81
:10078000F36E160EF3CFDBFF02D0150EDB6A030EFD
:10079000DB50100B0EE0040EDBCF14F0050EDB5027
:1007A000D880145406E2060EDB5003E1040EDB5041
:1007B00034DA95D90AE2050EDBCFE7FF150EDB50E0
:1007C000E75E050EE7CFDBFF02D0050EDB6A040E05
:1007D000DBCF14F0160E45D9D880145414E2160E4F
:1007E000DBCFE6FF150EDBCFE6FF040EDBCFE6FF27
:1007F000050EDB50E552E75CE552D880E754E55240
:10080000D880E7545FD9030EDB50010B0BE1080ED3
:10081000DB5008E0B2D801E08DD0080EDB50BED826
:10082000080EDB6A170EDB5007E088D9170EF1D9E6
:1008300003E1151C01E17ED0160EDB5016E07ED9D7
:10084000300EE66E9FD802E1151C74E077D9DFCF39
:10085000E6FFFBEC0CF0E552E552E552F4CF15F063
:100860000001F31C02E1151C65E0050EDBCF14F05E
:10087000160EDB50D880145409E2050EDBCFE7FFDB
:10088000160EDB50E75E050EE7CFDBFF300EE66E9F
:10089000050ECBD94FE1390EDB2ADBCFE9FF3A0E4B
:1008A00001E3DB2ADBCFEAFF090EEFCFDBFFDB50F2
:1008B0000EE044D9090EADD902E1151C3BE0390E1A
:1008C000DB2ADBCFE9FF3A0EEDE3DB2AEBD755D885
:1008D00031E1160EDBCFE6FF080EC3D8E552E72460
:1008E0005DD82ED0070EDB50030A1CE0010A14E08D
:1008F000030A07E07BD9DBCFEEFF020EDBCFEDFF73
:100900001FD0F5D8196A17AE02D0186819682CD80C
:10091000BCD819C0EEFF14D0EAD817BE186824D886
:10092000B4D80ED063D9DBCFEFFF0AD07BD905E175
:10093000151C03E1F368F46810D0FCD801E3DB2A4E
:1009400079D93FEF00F0010EDBCF14F0020EDBCFC0
:1009500015F014C0F3FF15C0F4FF3B0EE15C02E29A
:10096000E16AE552E16ECBD029D9020EA5EF05F080
:1009700061D90800F550DF6E1200200EE66E080EF9
:1009800015EF06F0FBEC0CF0E552E552E552F3CF23
:1009900014F0F4CF15F00001F31C1200146E156A68
:1009A000D950010F4DD91450EE261550ED221200EA
:1009B000185E000E195AF70E18C0DBFFF80E19C0AA
:1009C000DBFF18C0E9FF19C0EAFF1200DBCFF4FF1C
:1009D000F350F45C1200DB50E76E040EE7CFDBFF50
:1009E00012000A0EDBCF14F00B0EDBCF15F00C0E4D
:1009F000DBCF16F00D0EDBCF17F0145015101610CC
:100A000017101200130EEECFDBFF140EEDCFDBFF3D
:100A1000130EDBCF14F0140EDBCF15F00001800EA7
:100A200015141200F70EDBCF18F0F80EDBCF19F01B
:100A30001200050EDB50E66ED950130F01D9E552B6
:100A4000E750EE6EED6A12000A0EDBCF04F00B0EDB
:100A5000DBCF05F00C0EDBCF06F00D0EDBCF07F081
:100A60001200DBCFE6FF150EDBCFE6FF050EDB50F5
:100A7000E552E724E552E7241200DB50CED8010E00
:100A8000F36E060EF3CFDBFF1200EE50EFCFEAFF5E
:100A9000E96E16C0EEFF17C0EEFF18C0EEFF1200A1
:100AA000D9CFE6FFDACFE6FFE1CFD9FFE2CFDAFF19
:100AB0001200DFCFE6FFE66ABDEC0EF0E552E5522C
:100AC000F3501200E76E080EE7CFDBFF1200EECF07
:100AD00014F0EECF15F0EFCF16F0176A1200050EE6
:100AE000DBCF14F0150EDB50D88014541200010E29
:100AF000DBCF16F0020EDBCF17F0186A1200E552BA
:100B0000E5CFDAFFE7CFD9FF12000A0E14C0DBFFF2
:100B10000B0E15C0DBFF1200D9500A0F20EF06F0B4
:100B2000F36E070EF3CFDBFF1200EECF14F0EFCF22
:100B300015F01200010EDB2A020E1200FC0EDBCFB4
:100B4000E6FFFD0EDBCFE6FF1200145E000E155A25
:100B5000F70E14C0DBFFF80E15C0DBFF14C0E9FF71
:100B600015C0EAFF1200DA20EA6EEF2AEECFF6FF98
:100B7000000EEF22EECFF7FFEF22EECFF8FF1200CC
:100B8000040EDBCFE6FF130EDB50E552E75C9ADF85
:100B9000DB5004DF060EDB501200090EDB500A0D9D
:100BA000F350DF24D00FE76E090EE7CFDBFFB8EF7D
:100BB00004F0DB50F36E050EE6EF04F0F70EDBCF2A
:100BC00014F0F80EDBCF15F01200DFCFE6FFC2EF16
:100BD00004F028DF030EECDE67EF05F014EC00F004
:100BE000E552E552E552E55200091200BDDEEE5035
:100BF000EFCFEAFFE96E010E1200130EDB50F36E29
:100C0000040EE6EF04F0040EDB50F36E090EE6EF7F
:100C100004F0DBCFE6FFC2EF04F0E76E050EE7CF8E
:100C2000DBFF12008BDFE5EF05F0DBCFE6FF86DFB1
:100C3000EEEF05F0D950F90FE96EFF0EB3EF05F0B6
:0A0C4000E96E000EDA20EA6E1200E1
:060C4A000001010E626FC3
:100C50000F0E636F646B010E656F666B676F686B79
:100C6000050E696F6A6B6B6B6C6B6D6B6E6B6F6B8C
:100C7000040E706F716B0C0E726F736B746B756B0F
:100C8000766B776B786B796B7A6B7B6BC30E7C6F53
:100C9000070E7D6F010E7E6F7F6B806B816B320E56
:100CA000826F836B846B856B866B060E876F886B98
:100CB000896B8A6B8B6B8C6B8D6B8E6B8F6B906B78
:100CC000916B926B936B946B956B966B976B986B28
:100CD000996B9A6B9B6B9C6B9D6B9E6B9F6BA06BD8
:100CE000A16BA26BA36BA46BA56BA66BA76BA86B88
:100CF000A96BAA6BAB6BAC6BAD6BAE6BAF6BB06B38
:100D0000B16BB26BB36BB46BB56BB66BB76BB86BE7
:100D1000B96BBA6BBB6BBC6BBD6BBE6BBF6BC06B97
:100D2000C16BC26BC36BC46BC56BC66BC76BC86B47
:100D3000C96BCA6BCB6BCC6BCD6BCE6BCF6BD06BF7
:100D4000D16BD26B6DD9D96BDA6B71D9E16BE26B78
:100D5000E36BE46BE56BE66BE76BE86BE96BEA6B07
:100D600012000001762B000E7723D25103E0D72B1F
:100D7000000ED823DA5103E0DF07000EE05BE351F9
:100D800003E0E607000EE75B04D82BD844D825EF34
:100D900007F00001773524E276513C08000E7755C4
:100DA0001FE2766B776B742B000E7523753518E296
:100DB00074513C08000E755513E2746B756B722B01
:100DC000000E732373350CE272513C08000E73550C
:100DD00007E2726B736B782B000E79237A2B7B23DF
:100DE00012000001D83516E2D7513C08000ED85544
:100DF00011E2D76BD86BD52B000ED623D6350AE27D
:100E0000D5513C08000ED65505E2D56BD66BD32BD9
:100E1000000ED42312000001800EE01515E0DF6BF8
:100E2000E06BDD07000EDE5B800EDE150DE0DD6B96
:100E3000DE6BDB07000EDC5B800EDC1505E0DB6B98
:100E4000DC6B010EE16FDA6B12000001800EE7151A
:100E50000DE0E66BE76BE407000EE55B800EE51541
:100E600005E0E46BE56B010EE86FE36B1200D2D88E
:100E7000DBCFD2F0BED0D9CFE6FF0001D1D8B9D0B8
:100E8000C9D8DBCFDAF0B5D0D9CFE6FF0001CFD893
:100E9000B0D0C0D8DBCFE3F0ACD0D9CFE6FF0001B3
:100EA000E46BE56BE66BE76BA4D00001802B000ED2
:100EB000812383518119E8AE02D0813504D080515D
:100EC000825D815183590AE27E517F1103E1010E57
:100ED0007E6F01D07E6B7F6B806B816B1200000197
:100EE000962B000E972399519719E8AE02D09735AB
:100EF00004D09651985D975199590AE294519511F1
:100F000003E1010E946F01D0946B956B966B976B18
:100F100012000001672B000E68236A516819E8AEC1
:100F200002D0683504D06751695D68516A5904E29E
:100F300065C067F066C068F0120000016707000E28
:100F4000685B68516619E8AE02D0663504D0655119
:100F5000675D6651685904E269C067F06AC068F06D
:100F60001200D9CFE6FFE1CFD9FF0001010E6B6F70
:100F70006CC06EF06DC06FF0FE0EDB5004E03DD82B
:100F8000EE26000EED22FD0EDB5004E036D8EE5EBC
:100F9000000EED5AFC0EDB5012E06E2B000E6F239C
:100FA00071516F19E8AE02D06F3504D06E51705D8B
:100FB0006F51715904E26CC06EF06DC06FF0FB0EA2
:100FC000DB5012E06E07000E6F5B6F516D19E8AEDB
:100FD00002D06D3504D06C516E5D6D516F5904E2D5
:100FE00070C06EF071C06FF0D4DE03D000016B6B87
:100FF0001200E552E7CFD9FF12006EC0E9FF6FC0C3
:10100000EAFFD890E936EA36F50EE926000EEA2224
:10101000020E1200D9CFE6FFE1CFD9FFFD0E12007C
:10102000D36BD46BD56BD66BD76BD86B1200DB6BE5
:0C103000DC6BDD6BDE6BDF6BE06B120035
:04103C0020EF08F0A9
:1010400072C0E6FF73C0E6FF56D839D974C0E6FF18
:1010500075C0E6FF72C0E6FF73C0E6FF520E166E63
:10106000160E38D9000EE66E010EE66E56EC0CF048
:10107000196E0B0EE15E195000017E517F1119E0CF
:101080007CC0E6FF7DC0E6FF78C0E6FF79C0E6FFE2
:101090004DD815D9490E166E160E1CD9140EE66ED3
:1010A000010EE66E56EC0CF0196E090EE15E195059
:1010B00004D0360E146E160EEFD80001802B000EF1
:1010C000812383518119E8AE02D0813504D080514B
:1010D000825D815183590DE27E517F1102E0000E45
:1010E00001D0010E7E6F7F6B800B01E07F69806B0A
:1010F000816B39EF09F0D9CFE6FFE1CFD9FFFD0EC3
:10110000DBCF14F0FE0EDBCF15F0153404E21450E3
:101110000B08000E155404E3330E146E160E03D0A4
:10112000300E146E160E9CD8156EDCD0BBD801E1C3
:10113000075035E0050E061801E107502CE0040EBB
:10114000061801E1075023E0030E061801E10750DD
:101150001AE0020E061801E1075011E0010E061810
:1011600001E1075008E006501EE107501CE1260E81
:10117000146E160E1BD01C0E146E160E17D0120E07
:10118000146E160E13D0080E146E160E0FD0FE0E2F
:10119000146E150E0BD0F40E146E150E07D0EA0E59
:1011A000146E150E03D0E00E146E150E59D89AD099
:1011B00079D801E1075041E0050E061801E107501A
:1011C00034E0040E061801E1075027E0030E06186C
:1011D00001E107501AE0020E061801E107500DE088
:1011E000010E061832E1075030E1D50E146E150ECF
:1011F00031D8C20E146E150E27D0B60E146E150E11
:1012000029D8A30E146E150E1FD0960E146E150E4F
:1012100021D8830E146E150E17D0D50E146E150E30
:1012200019D8700E146E150E0FD0B60E146E150E62
:1012300011D85D0E146E150E07D0960E146E150E95
:1012400009D84A0E146E150E27D813D8E552E7CFE9
:10125000D9FF12004ED8000EE66E010E81EF09F0A4
:1012600048D8280EE66E010E4CD8280E146E010EDA
:101270001200000EE66E010EE66EF0EC09F0E5528B
:10128000E55248EC0AF0140EE66E010EE66EF0EC44
:1012900009F0E552E55212002CD8140EE66E010E4C
:1012A00081EF09F0D9CFE6FFE1CFD9FFFD0EDBCF0B
:1012B00006F0FE0EDBCF07F0060E06181200E55210
:1012C000E552F3CF14F0F4CF15F0F3CFE6FFF4CFEF
:1012D000E6FF1200176E186A16C0E6FFE66E18C029
:1012E000E6FF120014C0F3FFF46EE552E7CFD9FF1A
:1012F0001200156E166A14C0E6FFE66E16C0E6FF11
:101300001200E66E56EC0CF0176E050EE15E1750FB
:021310001200C9
:0E131200DBD8FD0EDBCFE6FF600EF7D0D5D89E
:10132000FD0EDBCFE6FF100EF1D089989298899CD4
:10133000929C8B9C949C836A8C6A956A640EFED8FE
:10134000300EBBD8300EB9D8300EB7D8380EC2D850
:10135000100EC0D80C0EBED8060EAFD8010E5DEF31
:101360000AF0B3D8FE0EDB508C6E8998C2D0ADD88F
:10137000FE0EDB508C6E8988BCD0140EAFD0180ED8
:10138000ADD0640EABD0680EA9D09FD8140EE12664
:10139000FD0EDBCFE6FFFE0EDBCFE6FF460E146E42
:1013A000150E156E166A14C0E6FFE66E16C0E6FF4F
:1013B000D9CFE6FFDACFE6FF56EC0CF0176E070E3A
:1013C000E15E1750D9CFE6FFDACFE6FF09D8E55244
:1013D000E552140EE15C02E2E16AE552E16E71D081
:1013E00074D8020EE126DE6ADD6A96D80A0805E0A6
:1013F00093D879D8FAE3DB2AF8D7020EE15C02E24F
:10140000E16AE552E16E5DD060D8020EE126D95066
:10141000FD0FE96EFF0EDA20EA6EEE50ED1015E0DA
:10142000DE6ADD6A7FD80A0805E07CD85CD8FAE37A
:10143000DB2AF8D72DD8DE6ADD6A7AD80A0805E0FB
:1014400077D851D8FAE3DB2AF8D7020EE15C02E242
:10145000E16AE552E16E35D038D8FE0EDBCFE6FF0B
:1014600086DFE5522ED031D8E652DF6AFD0EDB046E
:1014700003E0400EDF6E01D0DF6AFE0EDB50DF249A
:10148000DF6E800EDF24DF6EDF043CD8E55219D01A
:10149000020EE66E010EE66EE6DFE552E552120040
:1014A000010E82EF0AF0DBCF15F0DE501424E96E56
:1014B000DD501520EA6EEF50120024D8640E9EEF26
:1014C0000AF0E552E7CFD9FF1200D9CFE6FFE1CF0E
:1014D000D9FF120017D80A0E9EEF0AF0E66EBCEC98
:1014E0000BF0E5521200E66EB7DFE552DF2A010E7F
:1014F0001200899C8B8C640EE66E0BEC0FF0E552AB
:101500008B9CDFD7E66E2DDFE5521200E66ECAEC4B
:101510000BF0E552E552D5D7FD0EDBCF14F0FE0EF1
:1015200053EF0AF0FB0EDBCF14F0FC0E53EF0AF082
:10153000F90EDBCF14F0FA0E53EF0AF0E66EA6ECCC
:061540000EF0E55212005E
:0A15460025690A00446174616261C6
:101550007365202020446F6E6521200A00412F44CE
:101560002020202020202020446F6E6521200A00AA
:1015700054696D6572732020202020446F6E6521B0
:10158000200A004C43442020202020202020446FAB
:101590006E6521200A00426F6F74696E672E2E2ED1
:1015A000200A005350492020202020202020446F72
:1015B0006E6521200A00426F6F74696E672E2E20BF
:1015C0000A005049432020202020202020446F6E14
:1015D0006521200A00426F6F74696E672E200A0031
:1015E0004661696C20446179200053756E646179AD
:1015F0002020200053617475726461792000467266
:10160000696461792020200054687572736461797F
:1016100020005765646E6573646179005475657365
:101620006461792020004D6F6E6461792020200074
:10163000504D00414D00416C61726D206174203845
:101640003A303020414D200A0020257320256920A2
:101650000A00202020202532693A253032642025D6
:0416600073200A00E9
:0C16640075EC0DF0E66A110EE66E020E49
:10167000E66E99EC0BF0E552E552E55295EC09F077
:10168000F40EE66E010EE66E89EC09F0E552E552C5
:10169000050EE66EE66A8FEC09F0E552E552320E71
:1016A000E66EE66A8AEC0EF0E552E55235D8010E98
:1016B00028D832D8020E25D82FD8030E22D8DCEC39
:1016C0000DF02AD8040E1DD83AEC0EF025D8050EE0
:1016D00018D825EC06F0060E14D80A0EE66ECFECEC
:1016E0000EF0E55220D8E55217D81EEC08F017D8B6
:1016F000E55281A402D09AEC0EF011D8E5520FD831
:10170000F2D7E66EE66AD8EC08F0E552E552E668F4
:10171000A6EC0EF0E552120006D8E5521200100EAB
:10172000E66EA6EF0EF050EC0AF00A0EE66ECFEF72
:021730000EF0B9
:0E1732005CD8C76A200EC66EFE0EDB50C612D3
:10174000FD0EDB50110A08E0010A04E0110A07E16E
:10175000C79C03D0C78C04D0C78CC68802D0C79C56
:10176000C698010EF36EFC0EDBCFF4FFF350F45C71
:1017700001E3C78E898A3FD039D8E652899AFE0E96
:10178000DB50C96EC7A0FED7C790C950DF6E898AEB
:10179000E55231D02BD8020EE126899AFE0EDB509D
:1017A000C96EC7A0FED7C790C950DE6EDD6ADECF16
:1017B00014F0DDCF15F0040ED89014361536E80479
:1017C000FBE114C0DEFF15C0DDFFFD0EDB50C96E6E
:1017D000C7A0FED7C790C950DE6EDD6A898A020EA7
:1017E000E15C02E2E16AE552E16E05D0D9CFE6FFA5
:0E17F000E1CFD9FF1200E552E7CFD9FF12007A
:0217FE00D9CF41
:10180000E6FFE1CFD9FF060EE126040EDB6A050EE6
:10181000DB6AFC0EDBCF14F0FD0EDBCF15F01534C8
:101820000CE21450FF08030E155407E2FC0EDB68AF
:10183000030EF36EFD0EF3CFDBFFFC0EDBCF06F0E5
:10184000FD0EDBCF07F0040E06C0DBFF050E07C060
:10185000DBFF040EDBCF06F0050EDBCF07F0020E38
:1018600006C0DBFF030E07C0DBFF020EDB50E76E96
:10187000010EE7CFDBFFFE0EDBCFE6FF030EDB50F2
:10188000E552E710DF6E010EDBCFE6FFDFCFE6FFAC
:10189000CAEC0BF0E552E552060EE15C02E2E16AA9
:0C18A000E552E16EE552E7CFD9FF1200DF
:0418AC00D9CFE6FFAB
:1018B000DACFE6FFE1CFD9FFE2CFDAFFE652E65218
:1018C000E652E652D950F90F146EFF0EDA20156E6B
:1018D000020E14C0DBFF030E15C0DBFF020EDBCFD0
:1018E000E6FF030EDBCFE6FFF90EDBCFE6FFFA0ED5
:1018F000DBCFE6FFFB0EDBCFE6FFD950FC0FE66E39
:10190000FF0EDA20E66E2AEC00F0146E070EE15CA2
:1019100002E2E16AE552E16E1450F3CFDEFFF4CF4C
:10192000DDFFFC0EDBCFE9FFFD0EDBCFEAFFEF6A48
:10193000DECF14F0DDCF15F014C0F3FF15C0F4FFB7
:10194000040EE15C02E2E16AE552E16EE552E5CFA8
:08195000DAFFE7CFD9FF120016
:081958000E0EF66E000EF76E94
:10196000000EF86E00010900F550F06F0900F55007
:10197000F16F03E1F06701D03DD00900F550EB6F46
:101980000900F550EC6F0900F550ED6F09000900F2
:10199000F550E96E0900F550EA6E090009000900EA
:1019A000F550EE6F0900F550EF6F09000900F6CF12
:1019B000F2F0F7CFF3F0F8CFF4F0EBC0F6FFECC0A5
:1019C000F7FFEDC0F8FF0001EE5302E1EF5307E02F
:1019D0000900F550EE6EEE07F8E2EF07F9D7F2C016
:1019E000F6FFF3C0F7FFF4C0F8FF0001F007000EA8
:0619F000F15BBFD71200FD
:0A19F600D9CFE6FFDACFE6FFE1CF1C
:101A0000D9FFE2CFDAFFFB0EDBCF14F0FC0EDBCF09
:101A100015F00001800E15141AE1FB0EDBCFE9FF73
:101A2000FC0EDBCFEAFFEECFF3FFEDCFF4FFEE2AA3
:101A3000000EEF22F3CFE9FFF4CFEAFFFD0EDBCF7C
:101A4000EFFFEF50156AF36E15C0F4FF10D0FB0ED8
:101A5000DB50FE0806E1FD0EDBCFE6FFFDEC0EF0ED
:101A600005D0FD0EDBCFE6FF03EC00F0E552E552BA
:0A1A7000E5CFDAFFE7CFD9FF12003F
:061A7A0004500B02F3CF43
:101A800000F0F4CF01F00C02F3500126000EF42018
:101A9000026E04500D02F3500226000EF420036E75
:101AA00004500E02F350032605500B02F35001269A
:101AB000F4500222000E032205500C02F3500226BD
:101AC000F450032205500D02F350032606500B027A
:101AD000F3500226F450032206500C02F350032662
:0A1AE00007500B02F350032612001A
:061AEA00806A896A926A1D
:101AF0000C0EC16E92809282928480969286899812
:101B00009298899A929A899C929C816A8A6A936A2D
:101B1000819093808A929392819493848196938604
:101B2000819893888A9A939A826A8B6A946A82903F
:101B3000948082929482829494848B9C949C836AF5
:101B40008C6A956A846A8D6A8D909690849296824A
:021B5000120081
:0E1B5200FE0EE3CFE9FFFF0EE3CFEAFFF36ADA
:101B6000F46AEE5203E0F34AF42AFBD71200FF0EA8
:101B7000E3CFF8FFE552FF0EE3CFF7FFE552FF0E8C
:101B8000E3CFF6FFE552E66AE66AE66A0900F55237
:101B900009E0FD0EE32A05E1FE0EE32A02E1FF0E55
:101BA000E32AF4D7FD0EE3CF05F0FE0EE3CF06F0F7
:081BB000FF0EE3CF07F0120065
:081BB800D08E240EF26E840EA3
:101BC000F16ED76AD66AC80ED56EF28E01013E6BF1
:101BD0003F6B12003EC1F3FF3FC1F4FF1200010151
:101BE0003E6B3F6B1200DACFE4FFE652F2A411D055
:101BF000F294D76AD66A01013C513D1104E18D800F
:101C0000010E3C6F02D08D903C6B3D6B3E2B000E65
:0A1C10003F23E552E5CFDAFF110093
:061C1A0007C013F006C034
:101C200012F006500D02F4CF05F0F3CF04F0075088
:101C30000E02F4CF07F0F3CF06F00D02F3500526A5
:101C4000F4500622E86A072212500E02F3500526CD
:101C5000F4500622E86A07220EAE33EF0EF012505F
:101C6000065E1350075A13AE000C0D50065E0E5060
:041C7000075A000C03
:0C1C7400C26AC26AC19AC198C186C184CC
:101C8000C192C190C08EC09AC098C086C094C082D4
:101C9000C0909284C2801200C250020B01E0010E7B
:101CA000156AF36E15C0F4FF1200C2821200D9CF7C
:101CB000E6FFE1CFD9FFC26AFE0EDB50040DF35000
:0C1CC000C26EC280E552E7CFD9FF1200CF
:041CCC00036A026A3B
:101CD000016A006A200EE76ED89004360536063693
:101CE000073600360136023603360B50005C0C50C6
:101CF00001580D5002580E50035809E30B50005E76
:101D00000C50015A0D50025A0E50035A042AE72E65
:041D1000E4D7120002
:0C1D1400D9CFE6FFE1CFD9FFFD0EDBCFF9
:101D2000E6FFE66ACAEC0BF0E552E552E552E7CF72
:101D3000D9FF1200040EE66EBCEC0BF0E552120067
:0C1D4000080EE66EBCEC0BF0E552120041
:041D4C00FF0EE35053
:101D50001C6EEF0E01D0F30EE76EE72EADEF0EF026
:101D60000C0E1B6EE76AE72EB3EF0EF01B2EB2EFE0
:0A1D70000EF01C2EABEF0EF0120077
:061D7A00F36AF46AFF0E9B
:101D8000E124E96EFF0EE220EA6EED6607D02F0E29
:0E1D9000EF6404D03A0EEF6001D0F32A120087
:021D9E00FF0E36
:101DA000E3501C6E480E01D04C0EE76EE72EFED7B6
:0E1DB000E76AE72EFED71C2EF7D700001200C0
:021DBE00000E15
:101DC000F36E00EE00F0080E01D81200EA6002D0B7
:0E1DD000EE6AFCD7F350E9601200EE6AFCD711
:021DDE0013EE02
:101DE00000F023EE00F0F86A0A9CACEC0CF01FEC5B
:0A1DF0000FF032EC0BF0FBD71200ED
:061DFA00FF0EE350ACBA3D
:101E000004D0AF6AAB8EAC8A949CACA2FED7AD6E08
:061E1000F36EF46A1200FB
:0A1E1600FF0EE350E84E120000003A
:0C1E200000D000D000D0E82EFAD712004D
:041E2C0030313233EC
:0D1E30003435363738396162636465660009
:021E3E00120090
:041E4000000000009E
:0A1E440072007400760078007C0044
:020000040030CA
:0100010004FA
:010003001EDE
:0100050003F7
:0100060001F8
:00000001FF
